{
    "txid": "1d2f946d69b5f48ea84dd4ed30f468126bc3d605d737d14151e7b144863e9ed6",
    "hash": "1d2f946d69b5f48ea84dd4ed30f468126bc3d605d737d14151e7b144863e9ed6",
    "version": 1,
    "size": 226,
    "vsize": 226,
    "locktime": 0,
    "vin": [
        {
            "txid": "ef19f6a7fd3bc15722f3ed1c7c43f3be77565a07ec12e84cdaa8b7491c7f8b1b",
            "vout": 0,
            "scriptSig": {
                "asm": "304502202dfc4eca4be4b3df16bd200807441ee02f9899f65f3c6d970eea822e597cfa5402210098ba02a0022b01515ae765a1bfc01a6927a524eeeccdda8b5179bd4624d9b61f[ALL] 02fd4861bab42586b2ec71d90b7dd1eda820bb5cd3017261a5216c0011195caced",
                "hex": "48304502202dfc4eca4be4b3df16bd200807441ee02f9899f65f3c6d970eea822e597cfa5402210098ba02a0022b01515ae765a1bfc01a6927a524eeeccdda8b5179bd4624d9b61f012102fd4861bab42586b2ec71d90b7dd1eda820bb5cd3017261a5216c0011195caced"
            },
            "sequence": 4294967295
        }
    ],
    "vout": [
        {
            "value": 0.09379,
            "n": 0,
            "scriptPubKey": {
                "asm": "OP_DUP OP_HASH160 5665e9f1b8efaf35610b1e35790684135702140b OP_EQUALVERIFY OP_CHECKSIG",
                "hex": "76a9145665e9f1b8efaf35610b1e35790684135702140b88ac",
                "reqSigs": 1,
                "type": "pubkeyhash",
                "addresses": [
                    "18sqCbYCdqBWSbmYFXLBEhED1hvDFVVeMY"
                ]
            }
        },
        {
            "value": 0.03313,
            "n": 1,
            "scriptPubKey": {
                "asm": "OP_DUP OP_HASH160 e132d1383118abc9177e3b5c8a5366d5d38b247e OP_EQUALVERIFY OP_CHECKSIG",
                "hex": "76a914e132d1383118abc9177e3b5c8a5366d5d38b247e88ac",
                "reqSigs": 1,
                "type": "pubkeyhash",
                "addresses": [
                    "1MXjv1RJVDpXuemCCMxVCvADCawyqyGfkW"
                ]
            }
        }
    ],
    "hex": "01000000011b8b7f1c49b7a8da4ce812ec075a5677bef3437c1cedf32257c13bfda7f619ef000000006b48304502202dfc4eca4be4b3df16bd200807441ee02f9899f65f3c6d970eea822e597cfa5402210098ba02a0022b01515ae765a1bfc01a6927a524eeeccdda8b5179bd4624d9b61f012102fd4861bab42586b2ec71d90b7dd1eda820bb5cd3017261a5216c0011195cacedffffffff02b81c8f00000000001976a9145665e9f1b8efaf35610b1e35790684135702140b88ac688d3200000000001976a914e132d1383118abc9177e3b5c8a5366d5d38b247e88ac00000000",
    "blockhash": "000000000000000082ccf8f1557c5d40b21edabb18d2d691cfbf87118bac7254",
    "confirmations": 115998,
    "time": 1399703554,
    "blocktime": 1399703554
}